:020000041A00E0
:10000000604000109524001A6501001A6701001A6B
:100010006901001A6B01001A6D01001A000000004E
:100020000000000000000000000000006D02001A47
:100030007101001A00000000D902001A2903001AF9
:100040007701001AC117001A7701001A000000009A
:100050007701001A7701001A7701001A7701001A58
:100060007701001A7701001A7701001A7701001A48
:100070002521001A7701001A7701001A7701001A6A
:100080007701001A7701001A7701001A7701001A28
:100090007701001A7701001A7701001A7701001A18
:1000A0000912001A7701001A7701001A7701001A65
:1000B0007701001A7701001A7701001A7701001AF8
:1000C000E929001A7701001A7701001A7701001A4E
:1000D0007701001A7701001A7701001A7701001AD8
:1000E0007701001A7701001A7701001A7701001AC8
:1000F00000000000000000007701001A7701001ADC
:10010000000000007701001A000000007701001ACB
:100110007701001AE852001A000000109000000059
:10012000E852001A0000001000000000E852001A17
:100130000040002000000000E852001A00200020CB
:100140000000000090000010D03F000000400020A0
:1001500000400000000000204000000000200020BF
:1001600000000000FEE7FEE7FEE7FEE7FEE7FEE731
:10017000FEE7FEE7FEE7FEE710B50023934203D259
:100180001C585C500433F9E710BD00238B4203D2A6
:1001900000221A500433F9E7704700F108034FF0CA
:1001A000FF32002182604360C360036101607047D9
:1001B00000230361704743685A688B604A605A683D
:1001C000916059604160086101684B1C0360704791
:1001D0000A68531C10B501D1036907E000F1080358
:1001E0005C682468944201D85B68F9E75A68086142
:1001F00091604A6059608B6001684B1C036010BDC0
:10020000436882689A6082685360036959688142D2
:1002100008BF5A60002202611868411E1960186800
:100220007047000003480068006880F3088862B6E1
:1002300000DF00BF08ED00E0DFF80C00016841F4CA
:10024000700101607047000088ED00E04FF080739E
:1002500000E90A0000236FF0020140F80C3C40F86E
:10026000202C40F8241C443870470000054B1968C6
:100270000868B0E8F04F80F309884FF0000080F381
:100280001188704738220010024B4FF080521A60DC
:10029000704700BF04ED00E0EFF311804FF0A001C4
:1002A00081F311887047002008B5FFF7F5FF024B76
:1002B0001A68501C186008BD0000001080F31188F7
:1002C00070470000034B18680138186008B9FFF741
:1002D000F5BF704700000010EFF30980114B1A685A
:1002E0001EF0100F08BF20ED108A20E9F04F1060BB
:1002F0002DE908404FF0A00080F3118800F026FDA2
:100300004FF0000080F31188BDE8084019680868C4
:10031000B0E8F04F1EF0100F08BFB0EC108A80F369
:10032000098870473822001008B5064B4FF08052FC
:100330001A60FFF7B1FF00F0E3FB0020BDE80840C2
:10034000FFF7BCBF04ED00E0064B1A68064B4FF404
:100350007A70B2FBF0F14A1E07201A6043F8040CD1
:10036000704700BF583E001014E000E00C4B1A68C4
:1003700042F0787010B51860196841F060441C6054
:10038000FFF7E2FF074B00241C60FFF755FF06480C
:10039000026842F040410160FFF744FF204610BD73
:1003A00020ED00E00000001034EF00E070B50446DE
:1003B00000F09EFB2448016861B9244A244B516037
:1003C0001360244A4FF4005583E8240082E8220099
:1003D000012101602CB1103463071CBF24F0070415
:1003E0000834651E41F6FE70854228D8174A136806
:1003F0005968A14203D31748834206D11FE01D6804
:10040000002DF8D01A462B46F2E715681868091B2C
:100410001035202910600CD91A1951605C6056689B
:100420000A4908684468B44201D20146F9E71060FD
:100430000A60094A5B681168C81A106000E000256C
:1004400000F0CEFB284670BD9820001090200010D0
:10045000900000109C2000100400001038B50446E5
:10046000B8B1A0F1100500F043FB54F80C1C094B87
:100470001A685068884201D21346F9E744F8102CF4
:100480001D60054B1A6851181960BDE8384000F02E
:10049000A7BB38BD9020001004000010014B186865
:1004A000704700BF0400001070B5046803466CB1CB
:1004B000C568026C4668AD18B542C56028BFC46007
:1004C0000846D968BDE8704001F076BB70BD10B534
:1004D0000446FFF7E9FEA36C002B0CDD606A50B107
:1004E00004F1240000F08AFC08B100F0FFFCA36CCA
:1004F000581EA064EFE74FF0FF31A164FFF7E2FE62
:10050000FFF7D2FE626C002A0CDD236953B104F1BF
:10051000100000F073FC08B100F0E8FC616C4A1EAA
:100520006264EFE74FF0FF306064BDE81040FFF712
:10053000C9BE38B51346026C044632B9056805BB1E
:10054000406800F025FD65601BE063B9806801F03C
:1005500033FBA068216C626843189342A36010D3F8
:100560002068A0600DE0C06801F026FB206CE26806
:1005700021684342D0188842E06002D26268D318F2
:10058000E360A16B4B1CA36338BD38B50D46044630
:1005900010B9FFF781FEFEE7FFF786FE2368226CA5
:1005A000E06BA36000FB0231013802FB00336160A5
:1005B0004FF0FF320021A163E3606264A26455B989
:1005C000216981B104F1100000F018FC01280AD162
:1005D000FFF75AFE07E004F11000FFF7DEFD04F11B
:1005E0002400FFF7DAFDFFF76DFE012038BDF8B5F6
:1005F0000E461746054670B15020FFF7D7FE044659
:1006000048B105FB06F00130FFF7D0FE206028B9A5
:100610002046FFF723FFFFF73FFEFEE7E563266472
:1006200020460121FFF7B1FF84F84D702046F8BD48
:100630002DE9FF410D4601929846044610B9FFF797
:100640002BFEFEE721B9036C002B62D10E4631E090
:1006500000262FE016B902A800F006FCFFF732FED4
:1006600000F046FAFFF720FE616C4B1C01D100231D
:100670006364A26C531C01D10020A064FFF722FE2A
:1006800002A801A900F000FC00283BD1FFF70CFEF6
:10069000A76BE66BFFF716FEB7422DD104F11000F1
:1006A000019900F085FB2046FFF711FF00F098FA52
:1006B000F8B10126FFF7F8FDA26BE06B824212D27F
:1006C000294620464246FFF734FF616A39B104F1FA
:1006D000240000F093FB012801D1FFF7D5FDFFF7BF
:1006E000F1FD012018E0019F002FB3D1FFF7EAFDD3
:1006F0000DE0FFF7C9FDDCE72046FFF7E8FE00F05C
:100700006FFAD6E72046FFF7E2FE00F069FA002014
:1007100002E0FFF7C1FDFEE704B0BDE8F0812DE97E
:10072000F0410E4615469846044610B9FFF7B4FD51
:10073000FEE721B9016C11B1FFF7AEFDFEE7FFF74F
:10074000ABFDA36B0746E06B834217D242462046BF
:100750003146FFF7EEFEA26C531C0AD1606A58B115
:1007600004F1240000F04AFB30B12DB101242C60CB
:1007700005E0A16C4B1CA364012400E00024384672
:10078000FFF79CFD2046BDE8F0812DE9FF410D46B5
:1007900001929846044610B9FFF77EFDFEE721B9A5
:1007A000036C002B7ED10E463AE0002638E016B9E5
:1007B00002A800F059FBFFF785FD00F099F9FFF75B
:1007C00073FD616C4B1C01D100226264A36C013388
:1007D00001D10020A064FFF775FD02A801A900F077
:1007E00053FB002857D1FFF75FFDA66BFFF76AFDAB
:1007F000002E4AD1216831B9FFF756FD606800F03C
:1008000091FBFFF75FFD04F12400019900F0D0FA9D
:100810002046FFF75CFE00F0E3F9002832D0012605
:10082000FFF742FDA06B38B320462946E668FFF784
:100830003BFEB8F1000F12D1A36B2168581EA063D4
:1008400011B900F069FB606022698AB104F11000FF
:1008500000F0D4FA01280BD1FFF716FD08E0626A18
:10086000E6602AB104F1240000F0C8FA0028F3D1B0
:10087000FFF728FD012018E0019F002F97D1FFF717
:1008800021FD0DE0FFF700FDC9E72046FFF71FFE41
:1008900000F0A6F9C3E72046FFF719FE00F0A0F923
:1008A000002002E0FFF7F8FCFEE704B0BDE8F081AD
:1008B0000E4B1A6810B5044650600D4801688C4212
:1008C00007D20C4A10681B68191DBDE81040FFF7DD
:1008D0007FBC094A10681B68191DFFF779FC07489F
:1008E00001688C4238BF046010BD00BF3822001080
:1008F0005022001054220010BC20001008000010EC
:100900002DE9F84F0A9DDDF82C900C9E884617467D
:100910009B46824610B9FFF7BFFCFEE70F2D02D9B8
:10092000FFF7BAFCFEE74C20FFF740FD0446002825
:1009300000F094801EB9B800FFF738FD0646266324
:100940001EB92046FFF78AFD88E0BA00A52130468F
:1009500001F06EF9236B013F03EB87000A22414649
:1009600020F0070704F1340001F076F904F10408DF
:10097000002184F83D104046E562A564FFF718FCAD
:1009800004F11800FFF714FCC5F11002A261246104
:100990006462384651465A46FFF758FC2060B9F168
:1009A000000F01D0C9F80040FFF77EFC2D482E490A
:1009B0000668731C03600E6816BB0C600168012991
:1009C00026D12A48142707FB06000136FFF7E5FB6E
:1009D000102EF6D1264F274E3846FFF7DEFB304665
:1009E000FFF7DBFB2448FFF7D8FB2448FFF7D5FBD4
:1009F0002348FFF7D2FB234B234A1F60166007E012
:100A0000224A106820B90B68DA6AAA4298BF0C60C3
:100A10001F48E36A01681F4A8B4288BF0360106861
:100A2000411C11601C4A20641068834288BF136017
:100A30000E4A142101FB03204146FFF7BCFBFFF7E0
:100A400041FC124B186830B107490A68D36AAB42BF
:100A500001D2FFF719FC0120BDE8F88F4FF0FF30FD
:100A6000BDE8F88F7822001038220010F420001022
:100A700060220010DC2000103C220010C820001072
:100A8000A8200010BC20001054220010C02000102C
:100A90007C2200105C2200105822001030B585B076
:100AA0000024802200940194029403940C480D4980
:100AB0002346FFF725FF012805460AD1FFF7ECFB87
:100AC000094B0A481D60046005B0BDE83040FFF7DF
:100AD0004DBC10B9FFF7E0FBFEE705B030BD00BF2D
:100AE000A90C001A524D001AC0200010502200100C
:100AF000024B1A68501C1860704700BFF0200010AD
:100B000038B52E4B1868002852D12D4801684A1C70
:100B100002600368DBB92B4B1868016811B1FFF75D
:100B2000BBFBFEE7284A1968106818601160274A65
:100B30001168481C10601A682548116811B94FF0F7
:100B4000FF3303E01B68DA68D1684B6803601C4818
:100B50001F4902680B689A422ED31A48026811682E
:100B600019B94FF0FF331A4925E00468144AE368C5
:100B7000DC6811686068814202D2154B186038BD8C
:100B8000251D2846FFF73CFBA36A1BB104F11800A2
:100B9000FFF736FB0F48E36A0268934288BF0360A1
:100BA0000D48142101FB03002946FFF704FBD4E79D
:100BB0000A490A68531C0B6038BD00BFF0200010C2
:100BC00050220010BC2000105422001034220010CB
:100BD0000800001058220010F4200010A42000107B
:100BE00070B5294C236813B9FFF756FBFEE7FFF7F2
:100BF0005BFB2068411E216025680DB100243FE0A9
:100C0000224A1468002CF9D0214B1868F0B1DE6834
:100C1000F468261D04F11800FFF7F2FA3046FFF7DA
:100C2000EFFA1C4AE36A11688B4288BF13601A4AC4
:100C3000142000FB03203146FFF7BDFA174BE46A8E
:100C40001968C86A844228BF0125DDE714490A688B
:100C500042B1134C206838B1FFF752FF2368581E89
:100C60002060F6E7012D06D10E4A00211160012413
:100C7000FFF70AFB04E00B4C2368012BBED1F3E71E
:100C8000FFF720FB204670BDF020001078220010F6
:100C90003C22001058220010F420001038220010CE
:100CA000A42000107422001070B5154C2368F3B115
:100CB000144DFFF71DFF2E68FFF792FF002EF4D0B2
:100CC000FFF7F2FAEA68D568281DFFF799FA0E4B8C
:100CD0001868411E19602668721E2260FFF7F2FA3A
:100CE000286BFFF7BBFB2846FFF7B8FBDDE707489B
:100CF0000168012901D9FFF7C7FA01F019F8D4E713
:100D0000C4200010C820001078220010F420001029
:100D100010B5044618B9BDE81040FFF7B5BAFFF7A3
:100D2000E7FE084B084918680A682418101DFFF7E9
:100D300067FA2046FFF7BCFDFFF752FF0028EAD014
:100D400010BD00BF502200103822001008B5134B10
:100D5000186828B1012112481EE01168481E106071
:100D6000104A1149106814235843085828B91368C9
:100D7000002BF2D1FFF790FAFEE7126803FB021393
:100D800003F10802596848689042586004BF4068FF
:100D900058605B680548D968016008BDF020001004
:100DA0007422001058220010F42000103822001085
:100DB00038B50D4610B9FFF76FFAFEE70C4C216805
:100DC0001831FFF705FA20680430FFF719FA6B1C99
:100DD00006D122680748111DBDE83840FFF7EBB97E
:100DE000054B19686818BDE83840FFF761BD00BFC2
:100DF00038220010A82000105022001038B5C36817
:100E0000DC6814B9FFF748FAFEE704F11805284634
:100E1000FFF7F6F90F48016871B9251D2846FFF75D
:100E2000EFF90D4AE36A1068834288BF13600B4AEA
:100E3000142101FB032000E009482946FFF7BBF914
:100E4000084BE06A1968CA6A904234BF002001204A
:100E500038BD00BFF020001058220010F420001010
:100E60003C2200103822001008B510B9FFF714FA20
:100E7000FEE7034B034A196813680160436008BD2D
:100E8000342200105022001038B50D46044610B927
:100E9000FFF702FAFEE711B9FFF7FEF9FEE7FFF7E9
:100EA00003FA2B685A1C16D00E4A206811680E4AA5
:100EB000814203D01068616888420ED2106862686F
:100EC000811A994209D208480168521AD3182B6036
:100ED0002046FFF7C9FF002400E00124FFF7F2F9E4
:100EE000204638BD3422001050220010014B012250
:100EF0001A6070477422001008B9064B1868016B1D
:100F0000002398B20133CA1812F8012CA52AF8D090
:100F10008008704738220010014B1868704700BFE6
:100F20003822001070B50446002829D0154DC36A38
:100F30002A68D06A834223D22968CA6AC2F11000A3
:100F4000114AA0611421606901FB0323984214D166
:100F5000261D3046FFF754F92B680C48DB6A016800
:100F6000094AE3628B4288BF0360142000FB032020
:100F70003146BDE87040FFF71EB92968CA6AE262CF
:100F800070BD00BF38220010F4200010582200105D
:100F900038B50446D0B1C26A836C9A4216D0051D9A
:100FA0002846FFF72DF90A4AA36C1168E3628B42C9
:100FB000C3F1100088BF1360064AA061142000FB33
:100FC00003202946BDE83840FFF7F5B838BD00BF1B
:100FD00058220010F420001010B5374B01221A805F
:100FE00004460078532863D0732861D047285FD027
:100FF00067285DD046285BD0662859D0412801D0AB
:10100000612848D1022904DDA01C00F037FE024609
:1010100000E000226178462901D0662918D1501ECF
:101020004FF6FE7188420AD8244B90B218804FF0D8
:101030008041234BB1FBF2F21A6001F053F91F4AD1
:101040001F4B204912881B681F4800F01CFD1EE042
:10105000472901D067290DD1541E4FF6FE739C42DB
:101060001A4C03D890B2208001F08AF9164818492A
:1010700022880AE051291BD0712919D0492901D0B1
:10108000692915D110481349134A00F0FCFC0E4899
:1010900000F0E4FF0CE0442801D0642808D10F4997
:1010A000A01C00F011FE00200C4900F00DFE10B154
:1010B00001490020088010BD822200101C00001091
:1010C00088000010574D001A543A00108C00001090
:1010D000814D001A984D001A734F001A0C00001031
:1010E00070B5124C124D23880A2809D111480021ED
:1010F0000068E9540A460B46BDE87040FFF798BA0D
:10110000B3F57F7F06D8591CE8548BB200222380A8
:10111000EA5470BD0849094800F0B5FC074800F0E2
:101120009DFF22880020A854208070BD84220010DA
:101130009835001094350010A34D001A543A001051
:10114000032210B501200021FFF751FA1B4A10605D
:1011500020B100210A460B46FFF76AFA1748184CDF
:10116000006800210B464FF0FF32FFF70EFB2168AD
:1011700031B1B1F864321BB901F5127000F0BAFC5C
:1011800022681AB102F5127000F0BEFC0D48047816
:101190001CB10D490988FFF71FFF094803681BB1FF
:1011A00003F5127000F0D0FC084A064800231380B3
:1011B000054A118813804354D0E700BF94350010CE
:1011C000E0320010983500108422001080220010B8
:1011D00010B50B4C00212046012203F029FA012210
:1011E0002046022103F024FA204602F005FD054BBB
:1011F00020224FF0807083F81823186010BD00BFC4
:101200000010084000E100E007B501220DF10701E0
:101210001346044803F0AEF904209DF8071000F0CF
:10122000CBFE0EBD0010084010B50D4C204601F05D
:1012300081FA204602F092FC20464FF4E13102F0A0
:10124000ADFC002220460321134603F03DF9204661
:10125000012102F0BBFCBDE81040FFF7B9BF00BFA1
:101260000010084013B5041C211C684602D001215F
:101270006846494200F020FA012809D1009B132B4F
:1012800006D8054A98008158002901D0019888475E
:10129000002CECD113BDC046883200100022132868
:1012A00003D8034B8000C1500122101C7047C04678
:1012B000883200101FB5012000210322FFF797F9A3
:1012C0000F4B18601C1C002804D000210A1C0B1CAA
:1012D000FFF7AEF9002101220B1C20685242FFF7F4
:1012E00054FA002103200090019102910391802281
:1012F000044901230448FFF703FB04B010BDC046B6
:1013000098390010BC4D001A6512001A08B58022E9
:1013100002480821920000F0F3F808BD882200106E
:1013200007B50191012100904942684600F032F969
:101330000EBD000090B583B000AF021CFB1D1A70FB
:10134000094BFA1D127852B25209F91D0978081C8E
:101350001F2101400120041C8C40211C9200D1500F
:10136000BD4603B090BDC04600E100E080B582B04C
:1013700000AF021C3960FB1D1A70FB1D1B787F2B10
:101380000DD90F49FB1D1B781A1C0F231340043B7A
:101390003A68D2B25201D2B2CB181A760CE00948A0
:1013A000FB1D002159563B68DBB25B01DAB2C0235A
:1013B0009B004118CB181A70BD4602B080BDC046D4
:1013C00000ED00E000E100E080B500AF034A8023BB
:1013D000DB000021D150BD4680BDC0460030044036
:1013E00080B582B000AF00237B6000233B601C4BC4
:1013F0001B68002B10D01B4B1B689A68194B1B688D
:10140000DB689A4208D0164B1A683B1D101C00215D
:101410001A1C0023FFF783F9134B1B68002B14D011
:10142000124B1B689A68114B1B68DB68D21A0F4B72
:101430001B685B689A4208D20B4B1A683B1C101C55
:1014400000211A1C0023FFF76AF97B68002B02D1E8
:101450003B68002B01D0FEF717FFBD4602B080BDF0
:10146000DC32001010000010D83200101400001000
:1014700080B500AF012000210322FFF7B8F8021C5D
:10148000184B1A60174B1B68002B07D0154B1B68B5
:10149000181C002100220023FFF7CAF801200021B8
:1014A0000322FFF7A4F8021C0F4B1A600E4B1B68B7
:1014B000002B07D00C4B1B68181C002100220023B6
:1014C000FFF7B6F8074B1B68002B03D0064B1B68D1
:1014D000002B04D1054B181C01F0A6F9FEE7BD4610
:1014E00080BDC046D8320010DC320010C44D001A56
:1014F00080B500AFBFF34F8F40BFBD4680BDC04633
:1015000080B584B000AFF860B9607A60BB68002B2A
:1015100005D07B68002B02D0FB68002B04D1194B4F
:10152000181C01F081F9FEE77B68013B7A681340E3
:1015300004D0154B181C01F077F9FEE7134B1B681C
:10154000181C0021202200F073FBFFF791FF0F4BC6
:101550001B687A685A600D4B1B68BA681A600B4B9F
:101560001B68FA681A61094B1B68094A5A61012015
:101570000721FFF7FBFE0120FFF7DCFEBD4604B0AC
:1015800080BDC046004E001A2C4E001A14000010F8
:101590005310B5CA80B582B000AF78603960434B54
:1015A0001B685A69424B9A4202D003235B4278E09F
:1015B0003B68002B0ED13D4B1B689A683B4B1B6868
:1015C000DB68D21A394B1B685B689A4248D3012307
:1015D0005B4266E03B68002B30DA07E0354B1B6866
:1015E000181C002164220023FFF7CFF82F4B1B6843
:1015F0009A682E4B1B68DB68D21A2C4B1B685B6801
:101600009A42EBD22CE0294B1B689A68274B1B6847
:10161000DB68D21A254B1B685B689A420ED3254BB8
:101620001A683B68101C00211A1C0023FFF7ADF854
:10163000031C012B02D000233B600BE01B4B1B68FB
:101640009A681A4B1B68DB68D21A184B1B685B68D8
:101650009A42D8D23B68002B02D104235B4220E09F
:10166000124B1B681A69114B1B6899680F4B1B685A
:101670005B68013B19400D4B1B681B684B43D1183D
:101680000A4B1B681B687A68081C111C1A1C00F0A6
:1016900093FA064B1B689A6801329A60FFF728FF9D
:1016A0000023181CBD4602B080BDC04614000010C7
:1016B0005310B5CAD832001080B582B000AF786040
:1016C00039603A4B1B685A69394B9A4202D003235E
:1016D0005B4266E03B68002B0AD1344B1B689A687A
:1016E000324B1B68DB689A423CD102235B4258E0D4
:1016F0003B68002B28DA07E02E4B1B68181C0021E2
:1017000064220023FFF741F8284B1B689A68274B97
:101710001B68DB689A42EFD024E0244B1B689A6870
:10172000224B1B68DB689A420ED1224B1A683B6839
:10173000101C00211A1C0023FFF727F8031C012BA3
:1017400002D000233B6007E0184B1B689A68174BD8
:101750001B68DB689A42E0D03B68002B02D104236F
:101760005B421EE0114B1B681A69104B1B68D9685D
:101770000E4B1B685B68013B19400C4B1B681B68D8
:101780004B43D218094B1B681B687968081C111C55
:101790001A1C00F011FA054B1B68DA680132DA6096
:1017A0000123181CBD4602B080BDC04610000010C9
:1017B0005310B5CADC32001080B500AFBD4680BD05
:1017C00080B500AFFFF700FEFFF70AFEFFF7F4FF5A
:1017D000BD4680BD38B50405051C240D0FD1382049
:1017E00002F0E6F8722001F0B3FF280B054B064A21
:1017F0000103D150382002F0FDF8201C01E0012542
:10180000684238BD040400000030044008B50028D8
:1018100005D00368197001680131016002E0C8B2A7
:1018200000F026FC08BDF7B5141C00900191002AB9
:1018300011DD0A1C01991578501A002D01D00132D2
:10184000F8E7A04201DA241A00E02C1C20279A07AE
:1018500002D5302700E020270025D9070CD4261C0C
:10186000002E05DD0098391CFFF7D0FF013EF7E799
:10187000E243D5172540641B2E1C019B591B895D33
:10188000002904D00098FFF7C1FF0136F5E7251CB9
:10189000002D05DD0098391CFFF7B8FF013DF7E783
:1018A000E743F81704403019FEBD0000F7B5071CE8
:1018B00000920C1C264A08D1302515705170099BE6
:1018C000111C089AFFF7AFFF41E0002101918B4204
:1018D00007D0009B0A2B04D18C4202DA012064421B
:1018E00001900025161CD5771E36751C002C11D0D2
:1018F000201C009902F036FF092902DD0A983A38C7
:10190000091830313170201C009902F021FF013E8E
:10191000041CEAE7019E002E12D0089C002C0BD07C
:10192000099A910708D5381C2D21FFF76FFF089BF6
:101930000124013B089303E0013D2D21297000247F
:10194000381C291C089A099BFFF76DFF2018FEBD63
:101950009C390010F0B589B0061C0D1C05920024BE
:101960002B78002B05D0252B73D169786A1C0029B0
:1019700005D1002E74D030680023037070E0252953
:1019800066D000232D2901D1AA1C0123151C28781B
:10199000302803D1022201351343F8E700222978C9
:1019A000081C3038C7B2092F04D80A214A43013530
:1019B0001218F4E7732907D105990F1D09680597D7
:1019C000002941D128493FE064290ED1059F39689B
:1019D000381D01936123059000920293301C0A2266
:1019E0000123FFF763FF241838E0782907D1059F0A
:1019F000391D0591396800920193612208E0582948
:101A00000AD10599081D05900968009201934122A9
:101A10000292301C10220BE075290BD10599301C65
:101A20000F1D0968019361230092059702930A2212
:101A30000023D6E7632911D10598011D0768059198
:101A4000002007A90F704870301CFFF7ECFECAE7B2
:101A5000151C2978301CFFF7D9FE013401357FE7CA
:101A6000201C09B0F0BDC046D04E001A0FB407B517
:101A700004AA08CA0020191C0192FFF76BFF03B0EB
:101A800008BC04B018470EB40FB505AA08CA0190E7
:101A9000191C01A80392FFF75DFF04B008BC03B056
:101AA00018470000F7B50120FFF732F9FEF7F6FC02
:101AB00080250C4CED00061C291C201C00F0E2FACD
:101AC000291C071C084800F0DDFA331C0097019020
:101AD0000649074A201CFFF7D6FF201C00F0BEFA7B
:101AE000F7BDC046543A001098350010D74E001A82
:101AF000164F001A00230121036143600360436114
:101B0000C360C383818370470D494269012330B5A7
:101B1000C3838968002A0CD0002304680A1C1D1C9A
:101B2000121BAB41AB4203DA044D034C12196B415B
:101B30008260016030BDC04600000000010000006E
:101B400000500840C046C046C38B30B5002B28D09B
:101B5000174A056893680021C1835C1BAB4201D31F
:101B6000221C05E0221C0B1C104D0F4C12196B415E
:101B70004569141C4260111C002D09D0C1688A42BD
:101B800000D90A1C0369211E994200D2191C141C99
:101B9000C4600161AB1C01D0013501E001256D423B
:101BA000456130BDC046C046000000000100000095
:101BB00000500840C046C04630B5002837D0002944
:101BC00034D0830716D111F0030413D122F003039C
:101BD0009C4203DA0D5905510434F9E7D21A26D094
:101BE000C418C9180023934203DACD5CE5540133CD
:101BF000F9E730BD10F0010310D111F001050ED14D
:101C000022F001042B46A34203DACD5AC552023317
:101C1000F9E7A2420BD0095D015530BD0023934284
:101C200003DACC5CC4540133F9E730BD084630BD5B
:101C300028B10023934202D0C1540133FAE7704720
:101C400038B10023C25C2AB10133B3F5806FF9D1FA
:101C500000E003461846704730B570B161B100230B
:101C6000934200EB030501DACC5C14B900232B701E
:101C700030BDC4540133F3E7084630BD30B50378B6
:101C8000202B014602D110F8013FF9E7092BFAD0C9
:101C9000302BF8D02D2B04D1411C43784FF0FF346A
:101CA00000E0012401220020303BDDB2092D06D8DE
:101CB0000A2505FB00308B5C01321F2AF4D1621C1F
:101CC00008BF404230BD00002DE9F8438946064672
:101CD000164B10B11860804601E0D3F800801868F8
:101CE0000178F9B1114A14682378E3B100252F4631
:101CF0004846FFF7A5FF874209DA4DB919F80730C2
:101D000022789A4204BF257001250137F0E71DB102
:101D1000064901340C6006E0B44204D003480134A3
:101D20000460DFE788464046BDE8F883E4320010EF
:101D3000024B1A68501C186030BF7047083A0010F8
:101D4000032210B501200021FEF751FC124A106059
:101D500020B100210A460B46FEF76AFC0120002153
:101D60000322FEF744FC0D4B186020B100210A4607
:101D70000B46FEF75DFC0A4A0A4B322010800648EB
:101D800040F2DC511980006800210A460B46BDE88C
:101D90001040FEF7FABC00BF0C3A0010103A0010D9
:101DA000180000101A00001038B5204B186830B128
:101DB000B0F8E81219B900F53370FFF79BFE1C4A22
:101DC0001A4C106800214FF0FF320B46FEF7DDFC85
:101DD00025681DB105F53370FFF796FE0121154DFD
:101DE000022000F0E9F80123134885F8DA30008872
:101DF000FEF78EFF11490A88541C0C80002485F8D8
:101E0000DA400F4D0220214600F0D6F8234628681C
:101E100021462246FEF70CFC044B18680028C4D06B
:101E200000F53370FFF790FEBFE700BFE03200100F
:101E30000C3A001000400F4018000010E83200106B
:101E4000103A001038B51E4B186830B1B0F81413B2
:101E500019B900F53E70FFF74DFE1A4A184C10688C
:101E600000214FF0FF320B46FEF78FFC25681DB1B5
:101E700005F53E70FFF748FE0121134D032000F0E9
:101E80009BF80123114885F8DB3000240088FEF719
:101E90003FFF85F8DB400320214600F08DF80C4918
:101EA0002246086823462146FEF7C2FB044A15680D
:101EB000002DC8D005F53E70FFF746FEC3E700BF12
:101EC000E0320010103A001000400F4018000010DF
:101ED0000C3A001038B50024154D286830B1B0F820
:101EE00040331BB900F54970FFF704FE296819B1AA
:101EF00001F54970FFF708FE0E4A0F4D108884F077
:101F00000104FEF705FF85F8DC400C4D0C482988DC
:101F10000180012000F050F805490A6800232B8059
:101F2000002AD9D002F54970FFF70EFED4E700BFB2
:101F3000E03200101A00001000400F40E83200109C
:101F4000EA32001070470000014B1860704700BF74
:101F5000E0320010014B1860704700BFF0320010F3
:101F6000014B1860704700BFEC32001038B50D4BC4
:101F700019682C2404FB0010041900252C2C0BD00C
:101F8000094AAB18D86A38B154F8281C44F8241C04
:101F9000FEF7B2FF44F8280C04352C34202DEDD187
:101FA00038BD00BFE0320010BC390010FFF77ABD29
:101FB000C0B2FFF795B80000072803D80A30024BDB
:101FC00043F82010704700BF2000001008B5184BE0
:101FD000842203F5E020C3F80C268169154B41F0FB
:101FE000040282610020187413490B20FFF756F990
:101FF00012490C20FFF752F911490D20FFF74EF955
:1020000010490120FFF74AF90F490220FFF746F96E
:102010000E490420FFF742F90D490520FFF73EF96C
:102020000C490E20FFF73AF90B4A0121117008BD47
:102030000060084020000010B11F001AAD1F001AF8
:102040006D1F001A451F001ACD21001A491F001AE2
:10205000551F001A611F001AF432001007B509233A
:1020600001904FF0FF3168460093FFF793FA0EBDE1
:1020700007B5082301904FF0FF3168460093FFF742
:1020800089FA0EBD10B502464B1E481E002BC3EB4D
:10209000000003DBD45C0CB9013BF6E710BD000087
:1020A0000B4B1A880AB1511E01E00A4801881A7CBC
:1020B00019805AB9064B0749B3F900000B88B0EBF9
:1020C000530F0548A8BF012280F8D820704700BFF1
:1020D000200000101C00001000400F40104B18683A
:1020E00010B51C4630B1B0F80C1219B900F5F870F3
:1020F000FFF700FD22681AB102F5F870FFF704FD42
:10210000FFF7CEFF052000F06FF8054B186828B1E7
:1021100000F5F870BDE81040FFF716BD10BD00BF18
:10212000E03200100F4A02F5E02010B501230E4CFA
:10213000136080F8C230217801290BD810200B4998
:10214000FFF7EEF82378622B02DC581CC2B200E0E5
:1021500064222270FFF7C2FF054B002183F8C210F2
:1021600010BD00BF00400840FC32001020000010ED
:1021700000400F40124B186810B51C4630B1B0F843
:10218000381219B900F50770FFF7B4FC0D4B0122A6
:1021900083F8C22020681C4618B100F50770FFF7CD
:1021A000B3FC07490B681BB103F50770FFF7CCFCC4
:1021B0000548002284F8C22001684B1C036010BD52
:1021C000E032001000400F40F8320010FFF7D2BF9D
:1021D00010B5044600F0BCFB80F00101C9B22046F6
:1021E000BDE8104000F062BB0B4B0C4A10B51C68F8
:1021F0000B4BD168B4FBF3F3002803FB00130ADD9B
:10220000002B05DA002903DDD1689942FCD310BD0B
:10221000D0689842FCDB10BD583E001000000C4016
:1022200040420F0013B504460020FFF7D1FF14B160
:102230000320FFF7CDFF0720FFF7CAFF0021019120
:10224000019A0C4B9A4202D80198411CF7E70020F2
:10225000FFF7BEFF14B10320FFF7BAFF0720FFF717
:10226000B7FF00230193019802498842DCD8019A04
:10227000531CF7E73F420F0038B5164B164C1D684C
:1022800041F28830B5FBF0F5204601F0FFFBA56177
:10229000616941F002026261636943F001006061BB
:1022A000E561616941F010026261E36B0B4A43F042
:1022B000C0000721E063C2F804146368084943F0D2
:1022C000010080224FF48053606081F80C230B6082
:1022D00038BD00BF583E0010004008400060084074
:1022E00000E100E038B50F4B0F4C1D68B5FBF0F571
:1022F000204601F05BFFA561E561606940F00201E5
:102300006161626942F0010363616068074B40F0FC
:10231000010180224FF48050616083F80C23186023
:10232000012038BD583E00100040084000E100E0A8
:1023300038B50F4B0F4A1888146864254543690067
:10234000B4FBF1F50C4C204601F0A0FBE56163699C
:1023500043F010006061E16B084B41F0C0020620C1
:10236000E263C3F82006616841F00102626038BD93
:102370008C000010583E001000400C4000600840E7
:1023800038B558B1064B074C1968642568434000BE
:10239000B1FBF0F5204601F009FFE56138BD00BF53
:1023A000583E001000400C402DE9FF4100F0B4F908
:1023B00000F0F2FAFEF738FFFEF7A8FFFFF706FE7F
:1023C000FFF7BEFCFFF758FFFFF7B2FF2848FFF703
:1023D00001FA002805DA0720012100F067FA30BF72
:1023E000FDE7244D2448019500240726802200960D
:1023F0002146234602940394FEF782FA2B1D802285
:1024000080460096019321462346029403941B487C
:10241000FEF776FA08358022234607460096019596
:102420002146029403941648FEF76AFA08EA070167
:1024300001F001050540FEF73DFF124A02940646F1
:10244000082000900192039480220F4821462346E1
:10245000FEF756FA3040284207D00C48FFF706FB3B
:102460000B48FFF703FBFEF719FB0120FFF7DAFE2D
:102470000000041AFC390010A91D001A451E001A9C
:10248000D51E001AF03900104111001A304F001A01
:10249000484F001A10B500F0DFFC0B4C0B4B9C4270
:1024A00005D294E807000C34FDF766FEF6E708480D
:1024B000844205D294E803000834FDF766FEF6E78F
:1024C000FFF772FFFEE700BF1401001A4401001A73
:1024D0006401001A80B483B000AF78600B46FB70D3
:1024E0007B685A6AFB7822FA03F303F00103002B9E
:1024F0000CBF00230123DBB2184607F10C07BD46D1
:1025000080BC704780B483B000AF78600B46FB702E
:102510007B681A68FB784FF0010101FA03F313405E
:10252000002B09D17B685A6AFB784FF0010101FA50
:1025300003F31A437B685A6207F10C07BD4680BC5F
:10254000704700BF80B483B000AF786007F10C071C
:10255000BD4680BC704700BF80B485B000AFF86056
:10256000B960FA71BB71FB79BA79F968B8684FEA5A
:102570004010C318CB181A7007F11407BD4680BC71
:10258000704700BF80B485B000AFF860B960FA71E1
:10259000BB71BB79002B13D0FB68BA6802F50062EF
:1025A00053F82220FB794FF0010101FA03F342EACC
:1025B0000301FB68BA6802F5006243F8221014E0D8
:1025C000FB68BA6802F5006253F82220FB794FF0ED
:1025D000010101FA03F36FEA030302EA0301FB6856
:1025E000BA6802F5006243F8221007F11407BD46ED
:1025F00080BC704780B582B000AF78607868FFF724
:10260000A1FF07F10807BD4680BD00BF80B584B0BB
:1026100000AFF860B960FA71BB71FA79BB79F868FC
:10262000B968FFF799FF07F11007BD4680BD00BFED
:1026300080B584B000AFF860B960FA71BB71FA7907
:10264000BB79F868B968FFF79DFF07F11007BD4631
:1026500080BD00BF80B582B000AF7860F970BA70FD
:102660007B70FB7878681946FFF734FF03461846FD
:1026700007F10807BD4680BD80B582B000AF786025
:1026800013460A46FA70BB70FB7878681946FFF764
:1026900039FF07F10807BD4680BD00BF80B483B095
:1026A00000AF13460246FA710A46BA71BB804FF476
:1026B000C043C4F20803F879BA79B9884FEA4010E8
:1026C000821843F8221007F10C07BD4680BC704702
:1026D00080B582B000AF7860F970BA707B70F9781D
:1026E000BA787B78786801F0EFFE07F10807BD46FD
:1026F00080BD00BF80B582B000AF78600B46FB7034
:10270000FB787868194601F0FFFE0346184607F18A
:102710000807BD4680BD00BF80B500AF4FF069001F
:1027200001F052F8024643F65863C1F200031A6002
:1027300080BD00BF80B582B000AF78607A684FF48A
:102740008053C4F208039A4210D14FF002004FF0B8
:1027500000014FF01902FFF7A1FF4FF002004FF008
:1027600001014FF0D102FFF799FF16E07A684FF4AC
:102770000053C4F20C039A420FD14FF002004FF005
:1027800003014FF01A02FFF789FF4FF002004FF0EC
:1027900004014FF0D202FFF781FF07F10807BD46A1
:1027A00080BD00BF80B500AF4FF40050C4F20C00F4
:1027B000FFF7C0FF4FF40050C4F20C0001F0CEF957
:1027C0004FF40050C4F20C004FF4E13101F0E6F98F
:1027D0004FF40050C4F20C004FF003014FF0000220
:1027E0004FF00003FFF774FF4FF40050C4F20C00E9
:1027F0004FF0010101F0EAF980BD00BF80B582B061
:1028000000AF0346FB7100BFFB794FF40050C4F2E8
:102810000C001946FFF76EFF0346002BF4D007F1BA
:102820000807BD4680BD00BF80B582B000AF7860AC
:1028300008E07B681B787A6802F101027A6018462A
:10284000FFF7DCFF7B681B78002BF2D107F108074C
:10285000BD4680BD80B582B000AF4FF000037B6005
:102860001CE044F6A073C1F600237A689B181B781D
:102870001A4644F6A873C1F6002379685B181B78E2
:102880004FF48040C4F20F0011461A464FF0010386
:10289000FFF7CEFE7B6803F101037B607B68072BAB
:1028A000DFD907F10807BD4680BD00BF80B582B003
:1028B00000AF02460B46FA71BB71FB79072B42D879
:1028C000FA7944F6A073C1F600239B5C1946FA79A5
:1028D00044F6A873C1F600239A5CBB794FF480409C
:1028E000C4F20F00FFF792FEBB79002B14D0FB79E6
:1028F0004FF0010202FA03F3DAB243F2FD23C1F210
:1029000000031B78DBB21343DBB2DAB243F2FD23E0
:10291000C1F200031A7016E0FB794FF0010202FACF
:1029200003F3DBB26FEA0303DAB243F2FD23C1F231
:1029300000031B78DBB21340DBB2DAB243F2FD23B3
:10294000C1F200031A7007F10807BD4680BD00BF41
:1029500080B483B000AF0346FB71FB79072B12D81C
:1029600043F2FD23C1F200031B781A46FB7942FAB9
:1029700003F303F00103002B02D04FF0010304E046
:102980004FF0000301E04FF00003184607F10C0779
:10299000BD4680BC704700BF80B500AFFFF702FFA7
:1029A000FFF7BAFE4FF48040C4F20F00FFF722FE9B
:1029B0004FF009004FF005014FF04202FFF76EFEA5
:1029C0004FF002004FF005014FF0D202FFF766FE14
:1029D0004FF006004FF003014FF04102FFF75EFE9B
:1029E000FFF738FF80BD00BF80B500AF4FF4E04077
:1029F000C4F208004FF000014FF000024FF0000356
:102A0000FFF728FE0346002B20D04FF4E040C4F22D
:102A100008004FF000014FF00002FFF72DFE43F2D7
:102A2000FE23C1F200031B7883F00103DAB243F204
:102A3000FE23C1F200031A7043F2FE23C1F2000329
:102A40001B784FF001001946FFF730FF80BD00BF33
:102A500080B483B000AF13460246FA710A46BA71D9
:102A6000BB804FF4C043C4F20803F879BA79B9883F
:102A70004FEA4010821843F8221007F10C07BD46B8
:102A800080BC704780B483B000AF02460B46FA7139
:102A9000BB804FF4C043C4F20803FA79B98802F549
:102AA000407243F8221007F10C07BD4680BC704706
:102AB00080B582B000AF786039604FF4A040C4F2B6
:102AC000000079684FF000023B6801F005FB07F158
:102AD0000807BD4680BD00BF80B485B000AF7860F8
:102AE0007A6842F27D63C6F2D633A3FB02134FEA43
:102AF000D353FB604FF44053C4F204034FF44052ED
:102B0000C4F20402D2F8202122F47041FA684FEA9C
:102B100002320A43C3F820214FF44053C4F20403A5
:102B20004FF44052C4F20402D2F8242122F470413E
:102B3000FA684FEA02320A43C3F8242107F1140766
:102B4000BD4680BC704700BF90B583B000AF4FF466
:102B50004B40C0F62840FFF7BFFF00F039FA4FF0B6
:102B600004004FF006014FF001024FF0000300F0A7
:102B70002DFD4FF006004FF4D851C0F2B7014FF4CD
:102B80006142C0F2F5524FF46143C0F2F55300F0D8
:102B900049FA4FF004004FF009014FF001024FF0E5
:102BA000000300F013FD4FF006004FF4D851C0F2BF
:102BB000B7014FF44B42C0F628424FF44B43C0F6E6
:102BC000284300F02FFA4FF000037B6028E044F622
:102BD000B073C1F600237A6813F8220044F6B0728D
:102BE000C1F600227B684FEA8303D318597844F674
:102BF000B072C1F600227B684FEA8303D3189C7839
:102C000044F6B072C1F600227B684FEA8303D31802
:102C1000DB78224600F0DAFC7B6803F101037B607D
:102C20007B68152BD3D94FF44053C4F204034FF4FF
:102C30004052C4F20402526822F00C025A604FF46F
:102C40004053C4F204034FF44052C4F204025268E9
:102C500042F003025A604FF000037B601FE045F230
:102C60000803C1F600237A6813F8220045F208022F
:102C7000C1F600227B684FEA8303D318597845F2E6
:102C80000802C1F600227B684FEA8303D3185B88F1
:102C90001A46FFF7DDFE7B6803F101037B607B686A
:102CA000052BDCD94FF004004FF009014FF005026D
:102CB00000F066FB4FF005004FF010014FF00102ED
:102CC0004FF0000300F082FC4FF002004FF00901CA
:102CD0004FF0020200F054FB4FF006004FF00001ED
:102CE00045F22002C1F6002200F0BCFD4FF00000CA
:102CF0004FF007014FF0040200F042FB4FF00300D9
:102D00004FF00C014FF0020200F03AFB4FF00300CD
:102D10004FF00F014FF001024FF0010300F056FC9D
:102D200007F10C07BD4690BD80B582B000AF4FF0F3
:102D300000037B601FE045F23003C1F600237A6890
:102D400013F8220045F23002C1F600227B684FEAF8
:102D50008303D318597845F23002C1F600227B680C
:102D60004FEA8303D3185B881A46FFF771FE7B682E
:102D700003F101037B607B687B2BDCD94FF0000300
:102D80007B6019E045F22022C1F600227B684FEA01
:102D90008303D318597845F22022C1F600227B68BC
:102DA0004FEA8303D3185B8808461946FFF76AFE8B
:102DB0007B6803F101037B607B68032BE2D907F199
:102DC0000807BD4680BD00BF80B500AF4FF4C043CB
:102DD000C4F2080347F27772C3F8002D4FF06F007A
:102DE0004FF001014FF001024FF0020300F06EFCC2
:102DF0004FF44053C4F204034FF44052C4F20402AF
:102E0000D2F82C2142F48032C3F82C214FF0660016
:102E100000F09EFC4FF001004FF00001FFF748FE6C
:102E200045F23020C1F6002000F05EFD45F2A420FE
:102E3000C1F6002000F08AFD4FF4A043C4F2000365
:102E40004FF4A042C4F20002D2F8002242F4002261
:102E5000C3F8002280BD00BF80B582B000AF4EF63F
:102E60000853CEF200037B6040F20003C1F600235A
:102E70007A68136001F058F9FFF766FEFFF754FF18
:102E8000FFF7A2FF07F10807BD4680BD80B487B0F9
:102E900000AFF860B9607A603B60BB68FA6802FB1B
:102EA00003F37B617A697B689A420AD37A694FF4AB
:102EB0004B43C0F628439A4203D87A693B689A424A
:102EC00002D94FF000037B617B69184607F11C07AC
:102ED000BD4680BC704700BF80B584B000AF0246DD
:102EE0000B46FA71BB71BB79184600F08FFA0346A6
:102EF000FB73BB79184600F0ADFAB860FB7B18464F
:102F000000F0C2FA0246BB6803F10103B2FBF3F31F
:102F1000184607F11007BD4680BD00BF80B485B0DC
:102F200000AF0346FB804FF01C03FB734FF0000320
:102F3000BB6032E045F2C422C1F60022B9680B46FC
:102F40004FEA43035B184FEA4303D3181B88FA8800
:102F50009A421ED345F2C422C1F60022B9680B463C
:102F60004FEA43035B184FEA4303D3185B88FA88A0
:102F70009A420ED845F2C422C1F60022B9680B4627
:102F80004FEA43035B184FEA4303D3181B79FB73E3
:102F900003E0BB6803F10103BB60FB7B1C2B0FD17B
:102FA00045F2C422C1F60022B9680B464FEA43033A
:102FB0005B184FEA4303D3181B79FA7B9A42B9D1C5
:102FC000FB7B184607F11407BD4680BC704700BF65
:102FD00080B483B000AF4FF00003C4F205039B69D7
:102FE0007B607B6823F002037B604FF00003C4F238
:102FF00005039A697B689A4205D04FF00003C4F23A
:1030000005037A689A617B6823F001037B604FF0C7
:103010000003C4F205037A689A6107F10C07BD4604
:1030200080BC704780B58AB000AFB9607A603B6001
:103030000346FB73FB7B184600F026FAF8617B68B9
:10304000B3F1FF3F54D07A68FB69B2FBF3F37B62C4
:10305000F869796ABA683B68FFF718FFB8617B6A5C
:1030600003F101037B62F869796ABA683B68FFF78C
:103070000DFF7861BB69002B0DD07B69002B0AD155
:103080007B6A03F1FF337B62FB7B1846796A00F0B1
:1030900063F803465BE0BB69002B09D17B69002B19
:1030A00006D0FB7B1846796A00F056F803464EE0DE
:1030B000BB69002B1CD07B69002B19D07A68BB69D7
:1030C000D21A79697B68CB1A9A420AD97B6A03F1D2
:1030D000FF337B62FB7B1846796A00F03DF80346BC
:1030E00035E0FB7B1846796A00F036F803462EE09F
:1030F000BA68FB69B2FBF3F37B623A68FB69B2FB27
:10310000F3F33B614FF000033B62F869796ABA68F8
:103110003B68FFF7BBFEB861BB69002B01D07B6A3F
:103120003B627A6A3B699A4204D27B6A03F10103EB
:103130007B62EAE700BF3B6A002B06D0FB7B1846A8
:10314000396A00F009F8034601E04FF00003184621
:1031500007F12807BD4680BD80B588B000AF0346A3
:103160003960FB71FB79184600F08EF938614FF039
:103170000003FB604FF00003BB604FF00003FB61F6
:103180004FF00103BB614FF00003C4F205035B6C19
:103190007B613B693A6802FB03F33B613B6803F1E7
:1031A000FF33FB607B6923F0F8537B61FB794FEAC7
:1031B00003637A6913437B617A694CF63D43CFF62A
:1031C000007313407B613A6945F6FF63C0F64C1308
:1031D0009A4225D807E0FB6903F10103FB61BB6953
:1031E0004FEA4303BB61BB693A6902FB03F34FEA51
:1031F000430245F6FF63C0F64C139A42EBD9FB68D5
:103200004FEA0342BB684FEA03331A43FB694FEAB4
:1032100003231A437B69134343F040037B611CE0A3
:103220003A694CF6FF73C1F212339A4210D8FB6828
:103230004FEA0342BB684FEA03331A43FB694FEA84
:1032400003231A437B69134343F0C0037B6104E00B
:1032500000F084F84FF0000308E04FF00003C4F2E0
:1032600005037A6922F001025A643B69184607F1A6
:103270002007BD4680BD00BF80B58CB000AF4FF0C9
:103280000003C4F205035B6CFB62FB6A4FEA136345
:10329000DBB203F00F03DBB2184600F0F5F8B862BA
:1032A00045F2DC23C1F6002307F104021868106020
:1032B0004FF00003C4F205031B6C03F00103002B65
:1032C00002D14FF0000344E0FB6A4FEA1343DBB244
:1032D0007B62FB6A4FEA133303F003033B62FB6A32
:1032E0004FEA132303F00303FB61FB6A4FEAD31396
:1032F00003F00103BB61FB6A4FEA931303F0010380
:103300007B617B6A03F101033B613B6A03F10103CB
:10331000FB6007F10402FB69D3181B78BB60BB6933
:10332000002B02D17B69002B07D0BA6AFB68B2FB85
:10333000F3F33A6902FB03F30BE0BB684FEA430384
:103340003A69B2FBF3F3B96AFA68B1FBF2F202FB35
:1033500003F3184607F13007BD4680BD80B400AFC7
:103360004FF00003C4F205034FF00002C4F205025F
:10337000526C42F001025A64BD4680BC704700BFE7
:1033800080B485B000AF0B463A600246FA71BB715B
:103390004FF00003C4F20503FA7902F1120253F868
:1033A0002230FB603B6803F1FF333B60BB79112B9C
:1033B0001BD0FB6823F0F85323F03D03FB604FF074
:1033C0000003C4F20503FA79B9794FEA01610846AE
:1033D000F968084339684FEA8101014341F400610B
:1033E00002F1120243F822100BE04FF00003C4F286
:1033F0000503FA79F96841F0010102F1120243F87C
:10340000221007F11407BD4680BC704780B485B018
:1034100000AF0346FB714FF00003C4F20503FA79D5
:1034200002F1120253F82230FB60FB6803F0010343
:10343000002B02D04FF0110306E0FB684FEA136344
:10344000DBB203F01F03DBB2184607F11407BD46D9
:1034500080BC704780B483B000AF0346FB714FF06F
:103460000003C4F20503FA7902F1120253F8223084
:103470004FEA9303DBB203F00F03184607F10C0782
:10348000BD4680BC704700BF80B584B000AF034626
:10349000FB714FF00003FB60FB79112B7AD801A27E
:1034A00052F823F0ED34001AF534001A9535001A5D
:1034B0000135001A0D35001A9535001A1535001A18
:1034C0002135001A2D35001A3535001A9535001AA8
:1034D0009535001A3D35001A4D35001A5D35001A34
:1034E0006D35001A7D35001A8D35001A4FF40043F2
:1034F000FB6050E04FF4D853C0F2B703FB604AE0E2
:103500004FF28003C0F2FA23FB6044E04FF0000367
:10351000FB6040E04FF4D853C0F2B703FB603AE0E1
:103520004FF46053C1F69C43FB6034E04FF000035E
:10353000FB6030E0FFF7A0FEF8602CE0FB79184656
:103540004FF00001FFF7C8FCF86024E0FB79184653
:103550004FF00101FFF7C0FCF8601CE0FB79184652
:103560004FF00201FFF7B8FCF86014E0FB79184651
:103570004FF00301FFF7B0FCF8600CE0FB79184650
:103580004FF00401FFF7A8FCF86004E04FF00003DF
:10359000FB6000E000BFFB68184607F11007BD465E
:1035A00080BD00BF80B582B000AF0346FB71FB79E0
:1035B000184600F05FF803461846FFF765FF03461C
:1035C000184607F10807BD4680BD00BF80B485B02E
:1035D00000AFF871B9717A713B714FF00002C4F21B
:1035E0000502FB7903F116034FEA8303D3185B68E6
:1035F000FB60FB791B2B2AD8BB79112B35D0FA68DD
:103600004FF2FE73CEF2FF031340FB607B79002B79
:1036100003D0FB6843F40063FB603B79002B03D0CD
:10362000FB6843F00103FB60BB794FEA0363FA6870
:103630001343FB604FF00002C4F20502FB7903F173
:1036400016034FEA8303D318FA685A600DE04FF06F
:103650000002C4F20502FB79F96841F0010103F1AF
:1036600016034FEA8303D318596007F11407BD46C8
:1036700080BC704780B485B000AF0346FB71FB7916
:103680001B2B02D94FF011031AE04FF00002C4F2D5
:103690000502FB7903F116034FEA8303D3185B6835
:1036A000FB60FB6803F00103002B02D04FF0110315
:1036B00006E0FB684FEA1363DBB203F01F03DBB2E3
:1036C000184607F11407BD4680BC704780B485B02A
:1036D00000AF3B600346FB800B467B7113463B719A
:1036E0004FF00103FB607B79002B03D0FB6843F0B4
:1036F0000203FB603B79002B03D0FB6843F004031B
:10370000FB603B68022B03D1FB6843F02003FB60A6
:10371000FB88B3F5917F0CD94FF40053C4F2050335
:10372000FA88A2F2231202F12002F96843F832105B
:1037300009E04FF48053C4F20503FA8802F1200235
:10374000F96843F8321007F11407BD4680BC704792
:1037500080B483B000AF0346FB80FB88B3F5917F54
:1037600018D94FF40053C4F20503FA88A2F22310CB
:103770004FF40052C4F20502F988A1F2231101F1BD
:10378000200152F8312042F0010100F1200243F8FB
:10379000321013E04FF48053C4F20503F8884FF45D
:1037A0008052C4F20502F98801F1200152F831205B
:1037B00042F0010100F1200243F8321007F10C073A
:1037C000BD4680BC704700BF80B586B000AF0346E1
:1037D000FB80FB88B3F5917F0CD94FF40053C4F202
:1037E0000503FA88A2F2231202F1200253F83230C4
:1037F0007B6109E04FF48053C4F20503FA8802F1BB
:10380000200253F832307B617B6903F00103002B07
:103810001ED0FB881846FFF781FB0346FB72FB7A3C
:103820001846FFF7BFFEF8607B694FEA531303F0B9
:103830000703002B03D14FF001033B6102E04FF07F
:1038400002033B61FA683B69B2FBF3F3FB6002E001
:103850004FF00003FB60FB68184607F11807BD46F0
:1038600080BD00BF80B485B000AF0B463A60024611
:10387000FA71BB713B681A68FB794FEA0363134323
:10388000FB604FF00003C4F20503BA794FEA02125D
:103890009B1803F11803FA689A604FF00003C4F212
:1038A0000503B9793A68526801F102014FEA011142
:1038B0005B185A604FF00003C4F20503B9793A6807
:1038C000926801F102014FEA01115B189A604FF012
:1038D0000003C4F205033A68D268DA6307F11407FB
:1038E000BD4680BC704700BF80B584B000AF786033
:1038F0004FF06600FFF768FFF8604FF48053C4F2A2
:103900000503D3F878344FEAD36303F00703BB60B1
:10391000BB68012B0DD14FF44053C4F20403D3F81C
:103920002C3103F48033002B03D0FB684FEA5303A0
:10393000FB604FF4A040C4F200007968FA6800F020
:10394000F3F907F11007BD4680BD00BF80B584B014
:1039500000AF78604FF06600FFF736FFF8604FF475
:103960008053C4F20503D3F878344FEAD36303F0ED
:103970000703BB60BB68012B0DD14FF44053C4F269
:103980000403D3F82C3103F48033002B03D0FB68FD
:103990004FEA5303FB604FF4A040C4F20000796883
:1039A000FA6800F039FB07F11007BD4680BD00BF83
:1039B00080B485B000AF0346FB714FF44453C4F2AA
:1039C0000503FB60FB794FEA5313DBB24FEA830335
:1039D000FA68D318FB60FB7903F01F034FF0010274
:1039E00002FA03F31A46FB681A6007F11407BD4692
:1039F00080BC704780B485B000AF0346FB714FF4C4
:103A00004453C4F20503FB60FB794FEA5313DBB266
:103A10004FEA8303FA68D318FB60FB684FF000029B
:103A20001A6007F11407BD4680BC704780B485B0AA
:103A300000AF78607A684FF4A043C4F208039A425A
:103A400003D14FF08503FB8118E07A684FF44053AF
:103A5000C4F20C039A4203D14FF0A303FB810DE0A3
:103A60007A684FF48043C4F20C039A4203D14FF0BA
:103A7000A403FB8102E04FF08403FB81FB8918461D
:103A800007F11407BD4680BC704700BF80B582B007
:103A900000AF78607868FFF7C9FF03461846FFF764
:103AA00057FE07F10807BD4680BD00BF80B483B054
:103AB00000AF78607A684FF48053C4F208039A42EA
:103AC00002D14FF0000315E07A684FF40053C4F2BE
:103AD00008039A4202D14FF001030BE07A684FF4D9
:103AE0008053C4F20C039A4202D14FF0020301E06A
:103AF0004FF00303184607F10C07BD4680BC704722
:103B000080B485B000AF78607A684FF40053C4F297
:103B100008039A4202D14FF08203FB817A684FF486
:103B20008053C4F20C039A4202D14FF0A103FB81EF
:103B30007A684FF40053C4F20C039A4203D14FF059
:103B4000A203FB8102E04FF08103FB81FB89184651
:103B500007F11407BD4680BC704700BF80B584B034
:103B600000AF78607868FFF7A1FF0346FB737868C1
:103B7000FFF7C6FF034618464FF001014FF0010260
:103B80004FF00103FFF7A2FDFB7B7868194600F0B8
:103B90002DFB07F11007BD4680BD00BF80B584B086
:103BA00000AF786039607868FFF7AAFF03461846CF
:103BB000FFF70AFEF86078683968FA6800F076FB6B
:103BC0000346184607F11007BD4680BD80B584B096
:103BD00000AF78600B46FB707868FFF767FF03461D
:103BE000FB73FA7BFB78786811461A4600F076FD85
:103BF00007F11007BD4680BD80B483B000AF786088
:103C000043F21053C1F200034FF000021A7043F266
:103C10000033C1F200034FF000029A6043F2003318
:103C2000C1F200034FF00002DA6043F20033C1F248
:103C300000034FF000021A6043F20033C1F20003A8
:103C40004FF000025A6007F10C07BD4680BC704778
:103C500080B487B000AFF860B9607A60BB68002BB1
:103C600005DABB68C3F100034FEA232328E0FA68B2
:103C70004DF68363C4F21B33A3FB02134FEA934355
:103C80007B61BB687A6902FB03F244F6D353C1F24D
:103C90006203A3FB02134FEA93137B617B6903F179
:103CA000FF037B617B694FEA13237B617A697B6841
:103CB0009A4203D97A697B68D31A01E04FF0000376
:103CC000184607F11C07BD4680BC704780B485B01C
:103CD00000AF78607B684FEAD31303F00303FB6007
:103CE000FB68022B02D14FF0080317E0FB68012BA1
:103CF00007D17B684FEA932303F0030303F1080322
:103D00000CE0FB68002B07D17B684FEA932303F09C
:103D1000030303F1090301E04FF00003184607F124
:103D20001407BD4680BC704780B58CB000AFF8600A
:103D3000B9607A604FF00003FB622DE0FB6A4FEA46
:103D40004312FB68D3183B62BA68FB6A03F10303B2
:103D50004FEA0313D3181B7A1A46B968FB6A4FEA75
:103D60000313CB1803F13C031B684FEA031303F45E
:103D700070631A433B6AC3F80421BA68FB6A4FEACE
:103D80000313D31803F140031A683B6AC3F80021F8
:103D9000FB6A03F10103FB62FB6A032BCED9BB680C
:103DA0005A68FB689A62BB689B68786819464FF04E
:103DB0000102FFF74DFF0246FB681A63BB68DB6830
:103DC000786819464FF00102FFF742FF0246FB6890
:103DD0005A63BB681B69786819464FF00102FFF708
:103DE00037FF0246FB689A63BB685B6978681946CF
:103DF0004FF00102FFF72CFF0246FB68DA63BB6855
:103E00009B69786819464FF00002FFF721FF0246D0
:103E1000FB681A64BB68DB69786819464FF00102D9
:103E2000FFF716FF0246FB685A64BB681B6A786896
:103E300019464FF00102FFF70BFF0246FB689A6438
:103E4000BB685B6A786819464FF00102FFF700FF14
:103E50000246FB68DA64BB689B6A786819464FF0D3
:103E60000102FFF7F5FE0246FB681A65BB68DB6AD4
:103E7000786819464FF00102FFF7EAFE0246FB6838
:103E80005A65BB681B6B786819464FF00102FFF753
:103E9000DFFE0246FB689A654FF00003BB6203E059
:103EA000BB6A03F10103BB62BA6A40F2E7339A428C
:103EB000F6DDFB6840F283121A624FF00003BB622A
:103EC00003E0BB6A03F10103BB62BA6A40F2E73365
:103ED0009A42F6DDFB6840F203121A62FB684FF06B
:103EE00002025A624FF00003BB6203E0BB6A03F1B7
:103EF0000103BB62BB6A4F2BF8DDBB681B687868A7
:103F000019464FF00002FFF7A3FE034603F10F032B
:103F10004FEA1313FB61FB68FA695A62FB684FF0C2
:103F200083021A624FF00003FB624AE0BA68FB6A40
:103F30004FEA0313D31803F140031B681846FFF739
:103F4000C5FE034687F82730BA68FB6A4FEA0313B9
:103F5000D31803F140031B6803F48043002B06D001
:103F600097F8273003F1020387F8273005E097F828
:103F7000273003F1010387F82730BA68FB6A03F1A1
:103F800003034FEA0313D31803F104031B68BB6157
:103F9000BB69002B11D0BA68FB6A4FEA0313D31830
:103FA00003F13C031B687B6197F827307A6902FABA
:103FB00003F2BB6913431B683B61FB6A03F1010316
:103FC000FB62FB6A032BB1D9FB684FF000021A6257
:103FD000FB68D3F8003143F40022FB68C3F80021EA
:103FE000FB68D3F8203143F40022FB68C3F820219A
:103FF000FB68D3F8403143F40022FB68C3F840214A
:10400000FB68D3F8603143F40022FB68C3F86021F9
:1040100007F13007BD4680BD80B586B000AFF860BF
:10402000B9607A60BB681B784FEA43131A46FB6895
:10403000D3187B61BB685A687B69C3F80022BB68F0
:104040009B68786819464FF00102FFF701FE0246AF
:104050007B69C3F80422BB68DB68786819464FF0B7
:104060000002FFF7F5FD02467B69C3F80822BB6832
:104070001B69786819464FF00102FFF7E9FD024617
:104080007B69C3F80C22BB685B69786819464FF0FE
:104090000102FFF7DDFD02467B69C3F81022BB6811
:1040A0009B69786819464FF00202FFF7D1FD02467E
:1040B0007B69C3F81422BB68DB69786819464FF046
:1040C0000102FFF7C5FD02467B69C3F8182207F11C
:1040D0001807BD4680BD00BF80B485B000AFF86052
:1040E000B9607A603B603B68002B0CBF0023012362
:1040F000DBB21A467B68002B02D04FF4807301E0DC
:104100004FF0000313431A46FB689A60BB68002B0C
:104110000CBF00230123DBB21A46FB681A6007F1CB
:104120001407BD4680BC704780B489B000AF4EF61E
:104130008853CEF20003FB614EF64073CEF20003CB
:10414000BB614EF64473CEF200037B614FF0000377
:10415000FB74BB691B68BB607B691B687B60BA68CA
:104160004FF02103C1F211039A4209D17A684FF04E
:104170001103C1F200139A4202D14FF0010301E092
:104180004FF00003FB74FB7C002B09D0FB691B681C
:10419000FB60FB6843F47003FB60FA68FB691A601C
:1041A00007F12407BD4680BC704700BF80B485B0CE
:1041B00000AF78607B685B68FB607B684FF0000253
:1041C0005A607B684FF001029A607B684FF00202F0
:1041D0005A6000BF7B689B68002BFBD17B68FA6844
:1041E0005A6007F11407BD4680BC704780B485B0A3
:1041F00000AF78600B46FB70FB687B684FF00702EE
:104200009A6002E07B681B68FB607B685B6903F077
:104210000103002BF6D1FB78032B17D84FF00102D6
:1042200002FA03F303F00D03002B0FD07B684FF06D
:104230000102DA6500BF7B685B6903F02003002B95
:10424000F9D07B684FF00002DA6500E000BF7B68C0
:104250004FF000025A607B684FF00002DA607B6822
:104260004FF000021A627B684FF00002DA647B684C
:104270004FF000025A657B684FF000021A65FB7828
:10428000012B06D17B684FF000021A617B689B69A5
:10429000FB607B685B69FB607B684FF010029A6291
:1042A00007F11407BD4680BC704700BF2DE9B04F31
:1042B00094B000AF78613961FA604FF0000387F87D
:1042C0004F304FF0FF33BB624FF000033B644FF0C1
:1042D0000003FB634FF000024FF00003C7E90C231B
:1042E0004FF001037B6471E04FF00003BB6460E0BA
:1042F000F9680A464FF000034FEA12114FEA0375BE
:104300000D434FEA0274796C0A464FF0000302FB3A
:1043100005F004FB03F14118A4FB0223C9180B4666
:10432000786CB96C4118386900FB01F18A464FF08E
:10433000000B1046194652465B4600F01DFA024635
:104340000B46C7E908233B6AFB627B6A1B463B605E
:104350004FF0000179603B68BB63FB6AB3F1004F2B
:1043600007D9FB6AC3F10003FB62BB6B03F10103D6
:10437000BB63BB6B002B17D0BB6BB3F5803F13D86F
:10438000FA6ABB6A9A4210D2FB6ABB62B96B0A46F0
:104390004FF00003C7E90C23BB6C3B647B6CFB63F1
:1043A000BB6A002B0AD000E000BFBB6C03F1010325
:1043B000BB64BA6C7B6C9A429AD300E000BFBB6AC4
:1043C000002B07D07B6C03F101037B647B6C0F2B0C
:1043D0008AD900E000BFD7E90C2352EA030102D1D9
:1043E0004FF0000369E0FB684FEA1313FA6B02FB1E
:1043F00003F318464FF00001FA6B3B6CD4182246C9
:104400004FF000033C6B03FB04F57C6B02FB04F4F0
:104410002C193D6BA5FB0223E418234600F0ACF9F0
:1044200002460B461346FB613A69FB699A4204D97E
:104430003A69FB69D31ABB6203E0FA693B69D31A94
:10444000BB62BB6A4FF0640202FB03F23B69B2FB42
:10445000F3F3BB62BB6A022B2DD87B69DB6843F0A8
:1044600080027B69DA607B6B4FEA03633A6B4FEA49
:10447000122843EA08087B6B4FEA13294346DAB255
:104480007B695A603B6BDAB27B691A607B69DB68D7
:1044900003F07F027B69DA60FB6B4FEA0313DAB249
:1044A0003B6C03F00F031343DAB27B699A624FF05F
:1044B000010387F84F3097F84F30184607F150073F
:1044C000BD46BDE8B08F00BF80B485B000AF786056
:1044D000F970BA707B707B68DB6803F0C003FB6027
:1044E000FA78BB781343DAB27B781343DBB2FA680D
:1044F0001343FB60FB68DBB21A467B68DA6007F1A6
:104500001407BD4680BC704780B483B000AF7860AC
:104510000B46FB707B685B6903F02003002B02D124
:104520004FF0000304E0FA787B681A604FF0010353
:10453000184607F10C07BD4680BC704780B483B0B5
:1045400000AF786039607B685B6903F00103002B82
:1045500002D14FF0000306E07B681B68DAB23B68CB
:104560001A704FF00103184607F10C07BD4680BCD6
:10457000704700BF80B588B000AFF860B9607A605E
:10458000FB70BB683B617B68FB61FB78012B2AD128
:104590004FF00003BB6122E04FF0FF337B6106E088
:1045A0007B69002B0BD07B6903F1FF337B61F868DB
:1045B0003969FFF7C3FF0346002BF1D000E000BFCD
:1045C0007B69002B2AD03B6903F101033B61FB6946
:1045D00003F1FF33FB61BB6903F10103BB61FB69BD
:1045E000002BD9D11DE04FF00003BB6112E0F86849
:1045F0003969FFF7A3FF0346002B11D03B6903F194
:1046000001033B61BB6903F10103BB61FB6903F17A
:10461000FF33FB61FB69002BE9D102E000BF00E042
:1046200000BFBB69184607F12007BD4680BD00BF2B
:1046300080B485B000AF786013460A46FA70BB704C
:104640004FF00003FB60FB78062B2DD801A252F837
:1046500023F000BF7146001A7946001A8146001AFD
:104660008946001A9146001A9946001AA146001A76
:104670004FF00103FB6017E04FF00203FB6013E013
:104680004FF00403FB600FE04FF00803FB600BE00A
:104690004FF08003FB6007E04FF48073FB6003E0A2
:1046A0004FF40073FB6000BFBB78012B06D17B6821
:1046B0005A68FB681A437B685A600AE07B685A684C
:1046C000FB686FEA03031A4040F2073313407A682D
:1046D000536007F11407BD4680BC704780B483B0B7
:1046E00000AF786013460A46FA70BB70BB78012BA6
:1046F00011D1FB78032B22D84FF0010202FA03F309
:1047000003F00D03002B05D07B684FF00102DA6542
:1047100000BF17E013E0FB78032B12D84FF0010223
:1047200002FA03F303F00D03002B06D07B68DB6D68
:104730007B684FF00002DA6504E000BF01E000BFD3
:1047400000E000BF07F10C07BD4680BC704700BF0A
:10475000002902D0B0FBF1F0704708B14FF0FF30F4
:1047600000F008B80029F8D00246B0FBF1F000FBD9
:1047700011217047704700BF4BB942B9002908BFEB
:10478000002802D04FF0FF310846FFF7F3BF82B098
:10479000EC462DE9005000F01BF8DDF804E002B013
:1047A0000CBC7047F8B5164604460D461F4600F08F
:1047B00025F806FB01F300FB0737A6FB0023FB18D7
:1047C000A21A65EB0303069CC4E90023F8BD00BFF1
:1047D000F8B5164604460D461F4600F06DF900FB7D
:1047E00007F7A0FB062306FB0177FB18A21A65EB6F
:1047F0000303069CC4E90023F8BD00BF00292DE98E
:10480000F00F1D46C0F29D800024002DC0F2948060
:1048100080460F4694461E46E3BB8A4255D9B2FAFB
:1048200082F747B1C7F1200520FA05F601FA07F132
:10483000BA403143B840170CB1FBF7F6030C1FFA2E
:1048400082FC07FB16110CFB06F543EA01439D426F
:1048500008D9711E9B1880F013819D4240F210818F
:10486000023E9B18591BB1FBF7F507FB151380B2ED
:104870000CFB05FC40EA03418C4507D96B1E8A18E6
:1048800080F00081944540F2FD80023D45EA0641FA
:10489000002503E08B420CD9002529460A462B4609
:1048A00014B1524263EB430310461946BDE8F00FC2
:1048B0007047B3FA83F5002D40F087808B4201D317
:1048C0008242EAD800250121E8E712B90126B6FBA9
:1048D000F2F2B2FA82F6002E39D18E1A130C1FFAB8
:1048E00082FC0125B6FBF3F703FB17614FEA104981
:1048F0000CFB07F849EA0146B04506D9791EB618FF
:1049000002D2B04500F2D3800F46C8EB0606B6FBD4
:10491000F3F103FB116380B20CFB01FC40EA03439B
:104920009C4506D94E1E9A1802D2944500F2C280C8
:10493000314641EA0741B1E7E443524263EB4303A6
:1049400066E7404261EB41014FF0FF345DE7B24062
:10495000C6F1200921FA09F720FA09F5130C01FA2A
:1049600006F1B7FBF3F845EA01091FFA82FC03FBE5
:1049700018774FEA19410CFB08F541EA0747B040A8
:10498000BD420AD9BF1808F1FF3680F08E80BD42C3
:1049900040F28B80A8F10208BF18791BB1FBF3F538
:1049A00003FB15171FFA89F90CFB05F649EA0741C5
:1049B0008E4206D96F1E891871D28E426FD9023D80
:1049C00089188E1B45EA08458CE7C5F1200122FABB
:1049D00001F306FA05F61E4327FA01F24FEA1649DB
:1049E00007FA05F720FA01F1B2FBF9F80F433B0C87
:1049F0001FFA86FA09FB18220AFB08FB43EA024267
:104A000093450CFA05FC08D9921908F1FF314AD2F6
:104A1000934548D9A8F102089219CBEB0203B3FBE6
:104A2000F9F109FB1132BFB20AFB01FA47EA02436E
:104A30009A4506D94A1E9B1933D29A4531D9023973
:104A40009B1941EA08410F0C1FFA8CF808FB07F686
:104A50008AB24FEA1C4C08FB02F80CFB026202EB24
:104A600018420CFB07FC964288BF0CF5803CCAEB51
:104A700003030CEB124C63450ED305D000250DE764
:104A80000E46EFE61D4601E71FFA88F800FA05F02A
:104A900008EB0245A842F1D201390025FEE63D4669
:104AA0008FE71146CDE78846B7E7B04675E7023F86
:104AB000B6182AE702393CE72DE9F0071446054607
:104AC0000E46002B3DD18A4249D9B2FA82F747B14E
:104AD000C7F1200120FA01F206FA07F6BC4016439E
:104AE000BD40220CB6FBF2F02F0CA1B202FB106607
:104AF00001FB00F347EA0646B34208D9471E3619C0
:104B000080F0F880B34240F2F58002383619F61A88
:104B1000B6FBF2F302FB1362ADB201FB03F145EA0F
:104B20000242914207D95E1E121980F0E58091423F
:104B300040F2E280023B43EA00400021BDE8F0077A
:104B400070478B4243D8B3FA83F4002C42D18B4296
:104B500002D3824200F2DF8000210120EEE712B989
:104B60000127B7FBF2F4B4FA84F2002A40F08880FF
:104B70000A1B230CA7B20121B2FBF3F603FB16229A
:104B80004FEA154C07FB06F04CEA0242904207D967
:104B9000121906F1FF3C02D2904200F2CE80664626
:104BA000121AB2FBF3F003FB1023ADB207FB00F7C0
:104BB00045EA03439F4207D9421E1B1980F09E809D
:104BC0009F4240F29B80023840EA0640B6E700214F
:104BD0000846B3E7C4F1200622FA06F503FA04F307
:104BE0002B434FEA134C21FA06F501FA04F120FA9F
:104BF00006F6B5FBFCF746EA010A1FFA83F80CFB40
:104C000017554FEA1A4108FB07F941EA0545A9453E
:104C100002FA04F203D97E1EED187FD33746C9EBA2
:104C20000501B1FBFCF60CFB16151FFA8AFA08FB0E
:104C300006F84AEA0541884503D9751EC91873D399
:104C40002E4646EA0746370C1FFA82FC0CFB07F596
:104C5000120CB3B20CFB03FC02FB035303EB1C432B
:104C600002FB07F29D4288BF02F58032C8EB0101CA
:104C700002EB134291424BD342D0304600215DE714
:104C80009440C2F1200521FA05F6230C20FA05F71D
:104C900001FA02F1B6FBF3FC39430D0CA7B203FB9A
:104CA0001C6645EA064607FB0CF8B04500FA02F51B
:104CB00008D936190CF1FF303DD2B0453BD9ACF1E3
:104CC000020C3619C8EB0602B2FBF3F003FB102608
:104CD0008AB242EA064207FB00F1914206D9461E1B
:104CE000121926D2914224D902381219521A40EAD6
:104CF0000C4141E738460AE733461CE7104663E7B4
:104D00001FFA8CFC00FA04F00CEB03439842B4D277
:104D1000701E002112E7214620460FE7A9457FF6C5
:104D20007DAF023FED187AE7884589D9023EC91860
:104D300087E73046DAE78446C4E7023E12192FE7D8
:104D40002573090925630925750925750925750D3B
:104D50000A0049444C4500636F6D6D3A2041707004
:104D60002073616D706C696E67206673203D20252D
:104D70007520487A205473203D2025647E6E730A86
:104D800000636F6D6D3A2041707020666731203D81
:104D900020257520487A0A00636F6D6D3A202573CF
:104DA000200A000A636F6D6D206275666665722069
:104DB0006F766572666C6F7720210A004950432038
:104DC000457800004552524F523A20556E61626C50
:104DD0006520746F20637265617465204672656535
:104DE00052544F5320495043206576656E742073AA
:104DF000656D6170686F7265732E0D0A00000000AA
:104E00004552524F523A49504320517565756520BD
:104E100073697A6520696E76616C6964207061726D
:104E2000616D65746572730D0A0000004552524F42
:104E3000523A4950432051756575652073697A650A
:104E4000206E6F7420706F776572206F6620320D50
:104E50000A000000517565756520496E73657274AE
:104E6000204F4B00517565756520506F70204F4B7A
:104E70002F56616C69640000517565756520697312
:104E80002046756C6C00000051756575652069736E
:104E900020456D7074790000517565756520457207
:104EA000726F722F4E6F7420696E697469616C69DC
:104EB0007A6564005175657565206F7065726174FF
:104EC000696F6E2074696D6564206F7574000000F1
:104ED000286E756C6C29000A4275666665727320CF
:104EE0006672656520627974657320282573293A96
:104EF000200A48656170203D2025642C206E5F6487
:104F000062203D2025642C206E5F727842756620F9
:104F10003D2025640A004D340050494E47504F4E05
:104F200047005254502D4C6162205465616D200041
:104F30000A5254505F50696E67506F6E675F4D3410
:104F400020342E332E300A0028632920572E205378
:104F50006368756C7465722032303135204D61792B
:104F600020313220323032352031363A31393A333D
:104F7000340A005254505F50696E67506F6E675F1D
:104F80004D3420342E332E302C4D61792031322097
:104F9000323032352031363A31393A33340A000072
:104FA000060606060604040418191A1B1C0C0D0E2E
:104FB00000010100090901000A09010001070101BE
:104FC00002090100060901000C09010108030100A2
:104FD000070301000D0901000E0901000F0901007E
:104FE0001009010011090100120901001309010053
:104FF00014110100191101001A1101001B11010007
:105000000B0E0100030F01010303F3000304F3007F
:105010000305F3000306F3000307F3000308F3009E
:105020001D600000FA7F160600000000000000006E
:105030000113F0000001B6000112B3000114B30027
:105040000111F3000C01B3000110F700010FF30090
:105050000000F2000107F3000108F3000109F3006A
:10506000010AF300010BF300010CF300010DF30042
:10507000010EF3000504F2000505F2000506F2003A
:105080000507F2000500F2000501F2000502F2003A
:105090000503F2000D02F2000D03F2000D04F20010
:1050A0000D05F2000D06F2000D07F2000D08F200EA
:1050B0000D09F2000E05F3000E06F3000E07F300D3
:1050C0000E08F3000E09F3000E0AF3000E0BF300B6
:1050D0000E0CF3000209F300020AF300020BF300C6
:1050E000020CF300020DF3000100F2000101F200D6
:1050F0000102F2000208F3000207F3000206F200C8
:105100000202F2000201F2000200F2000608F100C1
:105110000607F1000D10F2000D0FF2000E00F30073
:105120000E01F3000E02F3000E03F3000E04F30071
:105130000A04F3000104F3000606F1000D0DF2006D
:105140000D0AF2000609F3000106F3000604F3005D
:105150000605F300060BF300060CF300060AF30045
:105160000D00F2000E0DF3000103F3000104F30043
:105170000606F1000105F3000106F3000D0A140014
:105180000D0B14000D0C14000D0D14000D0E140069
:105190000900100009011000090210000F00F000C2
:1051A0000F01F4000F02F2000F03F20004010500EA
:1051B00004020200040502000406020004070000C5
:1051C00004090200040A02000700000007060300A9
:1051D0000803030008040300080503000806030091
:1051E000080703000B0002000B0102000B02020083
:1051F0000B0302000B0402000B0502000B06020069
:105200000300F2000600F4000702F2000602F300B9
:105210000701F2000601F30003021200030152002D
:105220000000F0000001F0000002F0000003F000B8
:1052300000093D000100000000120000002A0000EB
:105240000046000000FFFFFF00FBFFFF000C000016
:10525000003C0000003C000000460000000C000084
:1052600000FEFFFF000000280300000032000000E5
:1052700000550000000000000000000000000000D9
:10528000000000000000000000000000000000001E
:10529000000000000000000000000000000000000E
:1052A000000000000000000082000000000000007C
:1052B00000410000005A0000005A000000230000D6
:1052C00000FCFFFF000005000A0020002400090088
:1052D0004000400005006000A60004000102040830
:0852E0001CF5FF7F0100000036
:1052E800AAAAAAAA00200000FFFFFFFF20090000C9
:1052F80000000020200000200A00F40188130000AC
:1053080000000F00194F001A224F001A0000000079
:105318000000000000000000000000000000000085
:105328000000000000000000000000000000000075
:105338000000000000000000000000000000000065
:105348000000000000000000000000000000000055
:105358000000000000000000000000000000000045
:105368000000000000000000DC460300C409FFFF45
:040000051A00249524
:00000001FF
